:020000040800F2
:10000000C8090020AD010008E30C0008410A0008FF
:10001000590C00084B0200089D2400080000000055
:10002000000000000000000000000000A11900080E
:10003000DD030008000000007510000881220008A0
:10004000C7010008C7010008C7010008811800089F
:10005000C7010008C7010008C1070008C701000860
:10006000E90700081108000839080008C70100085E
:10007000C7010008C7010008C7010008C701000840
:10008000C7010008C7010008C70100080000000000
:10009000000000000000000000000000C701000890
:1000A000C7010008C7010008C7010008C701000810
:1000B000C7010008C7010008C7010008C701000800
:1000C000C7010008C7010008C7010008C7010008F0
:1000D000C7010008E1220008C70100080000000075
:1000E000C701000861120008C701000800000000F5
:1000F000000000000000000000000000C701000830
:1001000000000000C7010008C7010008C70100087F
:1001100000000000000000000000000000000000DF
:10012000C7010008C7010008C7010008C70100088F
:10013000C7010008000000000000000000000000EF
:10014000000000000000000000000000C7010008DF
:10015000C7010008C7010008C7010008C70100085F
:10016000C7010008C70100080000000000000000EF
:10017000000000000000000000000000000000007F
:1001800000000000C701000800000000000000009F
:10019000C7010008DFF810D000F01AF80048004747
:1001A00029260008AFF30080C809002006488047D0
:1001B00006480047FEE7FEE7FEE7FEE7FEE7FEE74C
:1001C000FEE7FEE7FEE7FEE785220008950100084E
:1001D000064C074D06E0E06840F0010394E8070094
:1001E00098471034AC42F6D3FFF7D8FFCC2F000865
:1001F000EC2F000870B58C1810F8015B15F00703A0
:1002000001D110F8013B2A1106D110F8012B03E0AF
:1002100010F8016B01F8016B5B1EF9D12B0705D4B7
:100220000023521E0DD401F8013BFAE710F8013B00
:10023000CB1A921C03E013F8015B01F8015B521E1C
:10024000F9D5A142D8D3002070BDFEE770B50024D7
:100250001448016821F00C01016001680160124D31
:1002600004E0641CE4B2012002F0A0F9D5F8040215
:1002700008B1642CF5D3642C01D3012070BD002497
:1002800004E0641CE4B2012002F090F9D5F8040205
:1002900008B9642CF5D3642C01D3012070BD002073
:1002A00070BD000000040240008040421CB50121E6
:1002B000022000F0E1FE0221009101208DF80400EF
:1002C00000228DF806208DF805108DF8070069468C
:1002D000034800F067FB00F065F8FFF7B7FF1CBDAF
:1002E0000004024070B50024104D04E0641CE4B228
:1002F000012002F05BF9D5F8040208B1642CF5D3B3
:10030000002404E0641CE4B2012002F04FF9D5F8A7
:10031000040208B9642CF5D3282002F047F9D5F877
:10032000040208B1012070BD002070BD0080404271
:1003300070B5002000244006050EFFF7D3FF2843C8
:10034000641CE4B2082CF6D370BD00002DE9FC411A
:1003500006460F4600F026F8FFF778FF10B101209F
:10036000BDE8FC8100246D46FFF7E2FF2855641CC0
:10037000E4B2052CF8D39DF800109DF801009DF81B
:1003800002209DF803300844134403449DF8040000
:10039000834203D139703270014908700020DFE7D1
:1003A0001C00002010B50B48016821F00C01016011
:1003B000016841F004010160074C00202060142016
:1003C00002F0DAF801202060BDE810401E2002F0A3
:1003D000EDB80000000402408482404270470000F3
:1003E00038B5012830D01024022848D0032871D015
:1003F000042828D10B2202211F2000F065FD0C22C9
:1004000002212F2000F060FD112202213F2000F088
:100410005BFD122202214F2000F056FD4C4D00944E
:1004200002232A7804212B2000F0C4FD10233A2255
:1004300004213B2000F076FD00946A780223042119
:10044000432000F0B7FD38BD102342A20021072051
:1004500000F0E8FD102343A20221002000F0E2FD9D
:10046000102344A20421002000F0DCFD01B0102381
:10047000BDE83040062144A2032000F0D3BD0B228A
:1004800002211F2000F020FD0C2202212F2000F06D
:100490001BFD0D2202213F2000F016FD0E2202213D
:1004A0004F2000F011FD3C4D009402232A780421D6
:1004B0002B2000F07FFD10233A2204213B2000F086
:1004C00031FD00946A7802230421432000F072FD7C
:1004D00038BDFFE70B2202211F2000F0F5FC0C22A3
:1004E00002212F2000F0F0FC0F2202213F2000F01B
:1004F000EBFC102202214F2000F0E6FC102327A283
:100500000421172000F08EFD234D00942D1D0223A1
:10051000EA780421272000F04DFD10232F2204212A
:10052000372000F0FFFC00946A78022304213F206A
:1005300000F040FD10232F2204214F2000F0F2FC98
:100540000094AA7802230421572000F033FDBFE76E
:10055000B80500202A2A2A2A2048454C50202A2A59
:100560002A2A00004B313A5345542020204B343A7C
:100570004F4B00004B323A5550202020204B333A4D
:10058000444F574E0000000050595832303132303D
:100590003230363031313600E6040020323000008F
:1005A0003EB501A902A8FFF7D1FE082204210020D0
:1005B00000F08AFC092204210F2000F085FC1023A2
:1005C0003A2204211F2000F0ADFC102402230094E5
:1005D0009DF808200421272000F0ECFC1F4800941F
:1005E0000223027804213E2000F0E4FC10232E2296
:1005F0000421372000F096FC0C236F2204215020A8
:1006000000F090FC102343220421582000F08AFCC3
:100610000A220621002000F057FC092206210F20A3
:1006200000F052FC10233A2206211F2000F07AFC31
:10063000022300949DF804200621272000F0BAFC34
:100640001023252206213E2000F06CFC102304A27A
:1006500006214E2000F0E6FC3EBD00001C000020FC
:100660005059580038B5534A4FF48071002000F0BB
:1006700073FE5149002000F0D7FE10234FA2002145
:100680000F2000F0CFFC4C4D102400942A78022358
:1006900000211F2000F08EFC10233A2200212F2081
:1006A00000F040FC00946A7802230021372000F01B
:1006B00081FC10233A220021472000F033FC0094F3
:1006C000AA78022300214F2000F074FC10233BA2E3
:1006D00000215F2000F0A6FC291D002000F072FE22
:1006E0000223142219460020009400F063FC2D1D03
:1006F00000940223EA7819460F2000F05BFC1023D7
:100700002F2202211F2000F00DFC009402236A78A2
:100710001946272000F04EFC10232F2202213720FB
:1007200000F000FC00940223AA7819463F2000F054
:1007300041FC00220221572000F0C6FB287808283F
:1007400036D2DFE800F035040B121920272EBDE861
:10075000384001220221672000F0B6BBBDE83840D6
:1007600002221146672000F0AFBBBDE838400322EB
:100770000221672000F0A8BBBDE838400422022116
:10078000672000F0A1BBBDE83840052202216720A8
:1007900000F09ABBBDE8384006220221672000F035
:1007A00093BBBDE8384007220221672000F08CBBD4
:1007B00038BD0000B8050020E60400202D2D000003
:1007C00010B50A2001F0D8FE0548006810B90549A7
:1007D00001200870BDE81040012000F0A3B800001F
:1007E000000240421D00002010B50A2001F0C4FEA6
:1007F0000548006810B9054901204870BDE810405F
:10080000042000F08FB80000080240421D000020C4
:1008100010B50A2001F0B0FE0548006810B905497E
:1008200001208870BDE81040082000F07BB800006F
:100830000C0240421D00002010B50A2001F09CFE71
:100840000548006810B905490120C870BDE810408E
:10085000102000F067B80000100240421D00002088
:10086000FEB500F0A3F90121880300F021FC02216C
:10087000002001F097F80321002001F093F80421F3
:10088000002001F08FF80021084601F08BF80124C8
:10089000009400258DF804500C268DF805608DF825
:1008A0000640684600F044F81C2000908DF8045083
:1008B0008DF805608DF80640684600F039F806208E
:1008C0008DF808008DF8095002258DF80A508DF832
:1008D0000B4002A800F006FA08208DF8080003205B
:1008E0008DF809008DF80A508DF80B4002A800F031
:1008F000F9F909208DF808008DF809508DF80A5093
:100900008DF80B4002A800F0EDF90A208DF80800E0
:100910008DF809408DF80A508DF80B4002A800F0C0
:10092000E1F9FEBD0149086070470000143C014038
:1009300030B51B4A83790168002B2AD013688B439A
:100940001360111D0B680468A3430B600179114407
:100950000B68046823430B60114C0834216803685A
:1009600099432160231D19680568A94319604179DD
:10097000102905D011440A68006802430A6030BD9E
:1009800021680268114321601968006801431960F9
:1009900030BD0079104402688A43026030BD000017
:1009A000003C01402DE9F041002201274FF0030CEB
:1009B00007FA02F50B682B40AB422CD106685300B6
:1009C0000CFA03F4A64306600E79D0F800809E402E
:1009D00046EA080606600E79012E01D0022E12D1D9
:1009E0008668A64386604E79D0F808809E4046EA25
:1009F000080686604668AE43466045688E79964034
:100A0000B6B235434560C568A543C560CC799C4006
:100A1000C3681C43C460521C102AC9D3BDE8F081CE
:100A200010B54B07DB0E9A40C90800EB8100016A44
:100A30000F249C40A1430162016A1143016210BD71
:100A4000FEE700001CB50121022000F015FB4FF469
:100A50004070009001248DF8044000208DF80600BD
:100A600003208DF805008DF8074069460348FFF71D
:100A700099FF0348046044601CBD0000000402406C
:100A8000A08240422DE9F04105461448016821F456
:100A900040210160016841F480210160104E4FF057
:100AA0000008C6F8A08200240127E809C6F8A402BD
:100AB0006806050E022001F079FDC6F8A07202203A
:100AC00001F074FDC6F8A082022001F06FFD641CE5
:100AD000E4B2082CE9D3BDE8F08100000004024034
:100AE0000080404270B50B48016821F4402101604C
:100AF000016841F480210160074C012060602060A2
:100B0000042001F053FD00256560042001F04EFD36
:100B1000256070BD00040240A082404210B50C4820
:100B2000016821F440210160016841F480210160E5
:100B3000084C002020606060042001F037FD012097
:100B400020606060BDE81040042001F02FBD00006F
:100B500000040240A082404270B5002411480168A0
:100B600021F440210160016801600F4D0126C5F8A4
:100B7000A462012001F01AFDC5F8A062012001F075
:100B800015FD07E0641CE4B2FA2C03D9FFF7C6FF99
:100B9000012070BDD5F824020028F3D1C5F8A002C9
:100BA00070BD000000040240008040427CB501217D
:100BB000084600F061FA1C20009000258DF80450D2
:100BC00003208DF8050001248DF80740074E694683
:100BD0003046FFF7E7FE00948DF804508DF807408B
:100BE00069463046FFF7DEFE7CBD00000000024093
:100BF0002DE9FC410121022000F03EFA4FF4A05003
:100C0000009001248DF8044000258DF8065003263D
:100C10008DF805608DF807400D4F69463846FFF79F
:100C2000C1FE402000908DF804408DF806508DF8EC
:100C300005608DF8074069463846FFF7B3FE054862
:100C400084610461846184610560BDE8FC81000009
:100C50000004024098824042FEE73EB541F6FF7430
:100C60000121080700F016FA012000F0FDF900202C
:100C700000F04AFC45F25005A8422ED0012000F0B9
:100C800093FA04E0641CA4B20A2001F075FC412030
:100C900000F06EFA0028F5D00CB34FF4807000F02D
:100CA00099FA012000F090FA7F200190FF20029035
:100CB00000200090684600F0FFFB00231A4619460A
:100CC0000C2000F099FD152207230B21104600F09F
:100CD00085FD2946002000F059FE00203EBD012080
:100CE0003EBD704730B50F23C27801250178002A38
:100CF0001FD0154A126802F4E062C2F5E062C2F346
:100D00000722C2F10404D3404278A24084781C40F8
:100D10001443220101F1E02181F80024007800F061
:100D20001F018D404009800000F1E020C0F8005113
:100D300030BD01F01F0085404809800000F1E0202F
:100D4000C0F8805130BD00000CED00E002490843BE
:100D500002490860704700000000FA050CED00E051
:100D600070B5002505F1B000C0B2002100F075F9A2
:100D70000021084600F071F90021102000F06DF903
:100D800000240121002000F068F9641CE4B2802CEA
:100D9000F7D36D1CEDB2082DE4D370BD10B5FFF78D
:100DA00051FEC82001F0E8FB0021AE2000F055F90B
:100DB0000021084600F051F90021102000F04DF903
:100DC0000021402000F049F90021812000F045F980
:100DD0000021CF2000F041F90021A12000F03DF9D1
:100DE0000021C82000F039F90021A62000F035F9D3
:100DF0000021A82000F031F900213F2000F02DF95A
:100E00000021D32000F029F90021084600F025F93F
:100E10000021D52000F021F90021802000F01DF9EB
:100E20000021D92000F019F90021F12000F015F976
:100E30000021DA2000F011F90021122000F00DF954
:100E40000021DB2000F009F90021402000F005F925
:100E50000021202000F001F90021022000F0FDF81F
:100E600000218D2000F0F9F80021142000F0F5F8A1
:100E70000021A42000F0F1F80021A62000F0EDF8F8
:100E80000021AF2000F0E9F80021AF2000F0E5F8E4
:100E9000FFF766FF0021BDE810400846AFF3008071
:100EA00010B50446B031C8B2002100F0D6F81020C9
:100EB00040EA1410002100F0D0F804F00F00BDE863
:100EC0001040002100F0C9B82DE9F047814688465E
:100ED000174641464846FFF7E3FF0024104E06EB55
:100EE00087150121285D00F0B8F8641CE4B2102CCD
:100EF000F7D308F1010808F0FF014846FFF7D0FFDB
:100F00000024012000EB470006EB40150121285D7D
:100F100000F0A3F8641CE4B2102CF7D3BDE8F0870E
:100F2000210000202DE9F04180460F460024203AA0
:100F3000D5B2B8F17F0F02D9A046BF1CFFB2102B6B
:100F400012D039464046FFF7ABFF184905EB450084
:100F500001EB40050121285D00F07FF8641CE4B23C
:100F6000062CF7D3BDE8F08139464046FFF798FFDD
:100F70000F4E04EB05100121305C00F06EF8641C8C
:100F8000E4B2082CF5D37F1CF9B24046FFF788FF86
:100F9000002404EB051030440121007A00F05DF8D4
:100FA000641CE4B2082CF4D3DCE70000B42700088A
:100FB000DC2900082DE9F05F8046DDF828A08B468B
:100FC00091461D46002600244FEA5A071DE0281BC3
:100FD000401EC1B20A2001F08FFBB9FBF0F00A21DC
:100FE000B0FBF1F201FB120026B9691E8C4201DA56
:100FF00078B101263030C2B207FB0480C0B253463C
:101000005946FFF78FFF641CE4B2AC42DFD3BDE862
:10101000F09F07FB0480C0B2534630225946FFF7C9
:1010200081FFF0E72DE9F04104460E461746984649
:1010300000250DE0434631462046FFF773FF083494
:10104000E4B2782C02D90024B61CF6B26D1CEDB2C5
:101050007A5D002AEED1BDE8F081002901D001F0CF
:1010600035BA01F01CBA000001490862704700005F
:1010700000000E4270470000054A002903D01168A5
:10108000014311607047116881431160704700008F
:1010900030380240054A002903D01168014311602D
:1010A000704711688143116070470000403802406A
:1010B000054A002903D01168014311607047116887
:1010C00081431160704700004438024070B5244BE2
:1010D000196801F00C01234C00291ED0224E04296E
:1010E0001DD008291DD00460196801F0F00109091C
:1010F0001E4A545C0168E14041601C6804F4E054FD
:10110000A40A145D21FA04F484601B6803F46043AC
:101110005B0BD25CD140C16070BD0460E4E7066047
:10112000E2E70F4A121F1168C1F38055116801F000
:101130003F0135B1B6FBF1F11468C4F38814614383
:1011400005E0B4FBF1F11468C4F38814614312683C
:10115000C2F30142521C5200B1FBF2F10160C3E73D
:10116000083802400024F40040787D01000000208F
:1011700002460020510901290BD002290DD009494E
:10118000096802F01F02012393400B4200D00120A6
:101190007047044974390968F3E70249091F09686F
:1011A000EFE7000074380240064900220A700A7016
:1011B000012804D0042801D10520087070470120BF
:1011C000087070477038024001490860704700009D
:1011D0003C0E4742C0F30121032907D1074B196890
:1011E00021F4F8120649014011431960034A68329C
:1011F0001168C0F30B0001431160704708380240CA
:10120000FFFCFF0F38B500220092144CCA22226066
:1012100053222260114A1C3A002904D0116801436C
:101220001160012015E01168814311600B4A183AE2
:101230009513116801EA1021009B5B1C0093009B31
:10124000AB4201D00029F4D0116811EA102F03D06D
:101250000120FF21216038BD0020FAE7242800404A
:1012600010B54FF48074204600F0D0F8012808D162
:10127000204600F02BF806490120087005A001F077
:101280003DF9BDE810404FF40030FFF74BBB0000C4
:10129000E1040020414C41524D2041210D0A000043
:1012A000010901EB8101490000F00F000844C0B2C0
:1012B0007047002103E0491CC9B20A38C0B20A28AD
:1012C000F9D2090740EA11607047000080B240F08F
:1012D0008000C1430348026802F0800211430160AC
:1012E000704700000C280040000980B240F08000E8
:1012F000C1430348026802F0800211430160704755
:101300000C28004008B5002000900E4908684006EF
:1013100015D44FF0FF3008608B13086800F04000D0
:10132000009A521C0092009A9A4201D00028F4D0F0
:101330000868400601D5012008BD002008BD012035
:1013400008BD00000C2800400248016821F080011F
:10135000016070470C28004010B503461446B1F5F3
:10136000807F29D016480168C1F305402070C1F381
:101370000622627001F07F02A27001F48002120C5A
:10138000E270C1F30562227301F08042A26001F0B5
:1013900080316160002B0ED1FFF782FF20706078F2
:1013A000FFF77EFF6070A078FFF77AFFA070207BC8
:1013B000FFF776FF207310BD0148001F0168D3E7D7
:1013C0002028004010B502460C460E4801680E4821
:1013D0000140080CE070C1F30423637001F03F0387
:1013E000A370C1F342312170002A0AD1FFF758FFE0
:1013F000E0706078FFF754FF6070A078FFF750FF4F
:10140000A07010BD042800403FFFFF0002460020EE
:1014100003490968034B1940114200D0012070476D
:101420000C2800407F7F010010B502460C460F4893
:1014300001680F480140C1F305402070C1F3062345
:10144000637001F07F03A37001F48001090CE17067
:10145000002A0AD1FFF724FF20706078FFF720FFF1
:101460006070A078FFF71CFFA07010BD002800403E
:101470007F7F7F0030B50F4DCA222A6053222A6039
:101480000C4C0C4B1C3C20F004021C3300F00400FC
:10149000002906D0216811432160196801431960B1
:1014A00005E0216891432160196881431960FF209C
:1014B000286030BD2428004070B504460025114E38
:1014C000CA20306053203060FFF71CFFA8B10D48E0
:1014D0001C38016821F04001016001682268114355
:1014E00001600848A168143801600168A28841EAD7
:1014F00002410160FFF728FF0125FF2030602846E8
:1015000070BD00002428004008B5034901EB8000AD
:1015100000900098006808BD5028004070B505464E
:101520000E46144600202B49002D06D009684906B6
:1015300008D52078FFF7B4FE05E00968490607D40E
:10154000E07005E0E070A068A8B1207BFFF7A8FE7E
:10155000ADB1A0782178E27840EA014061780902D3
:1015600041EA02410843217B40EA0160A168084347
:10157000616808431CE0207BFFF792FEE8E72078D3
:10158000FFF797FE05046078FFF793FE45EA002514
:10159000A078FFF78EFE0543E07845EA0045207B02
:1015A000FFF787FEA16845EA0060084361680843C9
:1015B0000849CA221C310A6053220A60B6F5807FAE
:1015C00004D00A1F1060FF20086070BD014A143269
:1015D0001060F8E70828004070B505460C46002664
:1015E000002D06D16078C10603D520F010000A3026
:1015F00060702DB16078FFF753FEA078FFF750FEC2
:1016000055B1A078E17840EA014560782178000280
:1016100040EA413005430FE0E078FFF74AFE050459
:101620006078FFF746FE45EA0025A078FFF741FE07
:101630000543207845EA40350E4CCA2020605320EF
:101640002060FFF75FFE88B10B480540094820384D
:101650000560FFF779FE07481C380068800604D44F
:1016600000F02AF910B1012600E00126FF202060D9
:10167000304670BD242800403FFFFF002DE9F041B7
:1016800005460C4600260020244F002D06D0396860
:10169000490608D52078FFF703FE05E039684906BA
:1016A00002D4E07000E0E07055B1A078217840EA03
:1016B00001456078E178000240EA014005430FE00F
:1016C0002078FFF7F6FD05046078FFF7F2FD45EAA4
:1016D0000025A078FFF7EDFD0543E07845EA0045D9
:1016E0000E4CCA201C34206053202060FFF70AFEF5
:1016F00078B10B480540094808380560FFF724FE1B
:101700003868800604D400F0D7F810B1012600E054
:101710000126FF2020603046BDE8F0810828004007
:101720007F7F7F000549CA220A6053220A60034A6C
:10173000103A1060FF200860704700002428004025
:101740002DE9F04188B005460C4616461F464FF479
:10175000807800214046FFF755FD8DF804408DF854
:1017600005608DF8067000248DF807408DF8145040
:101770004FF08040049003940198029002AA4146E1
:101780000020FFF7CBFE4FF480563046FFF7ACFD4C
:1017900075012846FFF7C6F801213046FFF76AFEBB
:1017A00001214046FFF72EFD06958DF81C400820CC
:1017B0008DF81D0001248DF81E4006A8FFF7B8F82B
:1017C000054829210170022141708170C470FFF722
:1017D00089FA08B0BDE8F081E204002008B58DF870
:1017E00002208DF801108DF800308DF80300694655
:1017F0000020FFF7F1FE08BD08B58DF800008DF858
:1018000001108DF802208DF8033069460020FFF7A3
:1018100035FF08BD7CB505460C46002000F086F873
:10182000284600F06FF82046FFF77CFF4FF4804514
:101830002846FFF759FD2C022046FFF773F80121D7
:101840002846FFF717FE012000F070F800940020F2
:101850008DF8040008208DF8050001248DF806405D
:101860006846FFF765F805480321017002214170C1
:101870008170C470FFF736FA7CBD0000E2040020DE
:1018800010B54FF480642046FFF7C0FD012809D150
:101890002046FFF71BFD0749D1F8A80240B1002000
:1018A000C1F8A802BDE810404FF48000FFF73AB835
:1018B0000120F5E70080404218B500200090104B51
:1018C000CA201860532018600D491839086820F0A4
:1018D000A00008604FF40034086800F02000009A6F
:1018E000521C0092009AA24201D00028F4D008684D
:1018F000800601D5012000E00020FF21196018BDFD
:1019000024280040084ACA21116053211160064969
:101910001C390B6823F007030B600B6803430B6053
:10192000FF201060704700002428004018B50021F7
:101930000091154BCA2119605321196012491C39B5
:10194000002805D0086840F480600860012017E096
:10195000086820F4806008600B4A183A94131068F5
:1019600000F004000099491C00910099A14201D0A7
:101970000028F4D01068400701D4002000E00120C6
:10198000FF21196018BD00002428004008B5034A53
:1019900002EB800000900098016008BD50280040D4
:1019A0007047000010B58A07120F0F23934021F0F3
:1019B00003040649214401F608010C689C430C60AD
:1019C0000B68904003430B6010BD000000300140E5
:1019D0000CB50022019200922649086840F480303C
:1019E00008604FF4A043086800F4003000900198AC
:1019F000401C0190009810B901989842F3D10868F2
:101A0000800302D50120009000E000920098012898
:101A10002FD118484030026842F0805202601648C8
:101A2000026842F4404202601248083002680260D4
:101A300002680260026842F480520260031F0F4A8B
:101A40001A600A6842F080720A600A689201FCD546
:101A50000B4940F202720A60016821F00301016043
:101A6000016841F0020101600168C1F381010229AE
:101A7000FAD10CBD003802400070004019544107F3
:101A8000003C02402DE9FE4F4FF001080025FE49C1
:101A9000087801287ED100200870FC4C2070FFF7E8
:101AA0005FF965B1B8F1010F0DD0B8F1020F23D085
:101AB000B8F1030F4BD0B8F1040F03D188E04046D2
:101AC000FEF78EFCAEE01023F1A200210720FFF705
:101AD000A9FA1023F2A202210020FFF7A3FA102393
:101AE000F3A204210020FFF79DFA1023F5A206219E
:101AF0000320FFF797FA95E00B2202211F20FFF742
:101B0000E3F90C2202212F20FFF7DEF90D2202213A
:101B10003F20FFF7D9F90E2202214F20FFF7D4F919
:101B2000EC4E102400943278022304212B20FFF77E
:101B300041FA10233A2204213B20FFF7F3F90094E5
:101B40007278022304214320FFF734FA6AE00B2263
:101B500002211F20FFF7B8F90C2202212F20FFF7E6
:101B6000B3F90F2202213F20FFF7AEF91022022124
:101B70004F20FFF7A9F91023D7A204211720FFF760
:101B800051FAD44C1026241D009602230421E27839
:101B9000272000E057E3FFF70DFA10232F2204213E
:101BA0003720FFF7BFF900966278022304213F2017
:101BB000FFF700FA10232F2204214F20FFF7B2F97C
:101BC0000096A278022304215720FFF7F3F929E0B9
:101BD0000B2202211F20FFF777F90C2202212F2070
:101BE000FFF772F9112202213F20FFF76DF912224F
:101BF00002214F20FFF768F9B84E10240094327884
:101C0000022304212B20FFF7D5F910233A220421C7
:101C10003B20FFF787F900947278022304214320C8
:101C2000FFF7C8F9AE48007801280DD1AC49002073
:101C3000087008F1010808F0FF08FFF791F8B8F103
:101C4000050F01D14FF00108A648007801280DD1F9
:101C5000A44900200870A8F1010808F0FF08FFF768
:101C60007FF8B8F1000F01D14FF00408874A1078CF
:101C7000012804D084480178012907D00BE083496A
:101C800000200870BDE8FE4FFFF76AB8B8F1010FF9
:101C900001D100210170017801297FF402AFB8F170
:101CA000010F3FF4FEAE002101701170012589493A
:101CB00091F8009091F801A0091DCE784C788F78AA
:101CC000864991F800B049780191B8F1020F06D029
:101CD000B8F1030F7ED0B8F1040F7CD1D0E10B2214
:101CE00002211F20FFF7F0F80C2202212F20FFF71E
:101CF000EBF80D2202213F20FFF7E6F80E22022129
:101D00004F20FFF7E1F81020009002234A460421FB
:101D10002B20FFF74FF910233A2204213B20FFF735
:101D200001F9102000900223524604214320FFF7BE
:101D300041F9012D0BD10C236BA206212C20FFF7BA
:101D400071F90C2369A206214420FFF76BF9022DDB
:101D50000BD10C2364A206214420FFF763F90C2366
:101D600062A206212C20FFF75DF95D480178012968
:101D700016D100210170012D07D10AF1010A0AF0E4
:101D8000FF0ABAF13C0F00D18A46022D08D109F1B1
:101D9000010909F0FF09B9F1180F01D14FF000094D
:101DA00050480178012998D100210170012D08D1F6
:101DB000AAF1010A0AF0FF0ABAF1000F01D14FF0AF
:101DC0003B0A022D89D1A9F1010909F0FF09B9F1F6
:101DD000000F01E004E052E1E5D14FF01709BCE14A
:101DE000102000900223324604212720FFF7E2F85A
:101DF00010232F2204213720FFF794F810200090A1
:101E00000223224604213F20FFF7D4F810232F227B
:101E100004214F20FFF786F81020009002233A4655
:101E200004215720FFF7C6F8012D11D10C2330A251
:101E300006211820FFF7F6F80C232BA206214020DC
:101E4000FFF7F0F80C2328A206215820FFF7EAF844
:101E5000022D11D10C2328A206211820FFF7E2F849
:101E60000C2322A206214020FFF7DCF80C231EA23F
:101E700006215820FFF7D6F8032D51D10C23062157
:101E80001DA218203CE000001D00002020000020C2
:101E90002A2A2A2A2048454C50202A2A2A2A000089
:101EA0004B313A5345542020204B343A4F4B0000DD
:101EB0004B323A5550202020204B333A444F574E56
:101EC0000000000050595832303132303230363054
:101ED00031313600E604002032300000B805002021
:101EE0001E0000201F000020202000002D2D0000DB
:101EF0002D2D2D2D000000002020202000000000AE
:101F0000FFF790F80C23AFF2200206214020FFF7E4
:101F100089F80C23AFF22C0206215820FFF782F833
:101F2000CA480178012954D100210170012D03D143
:101F3000761C632E00D10026022D04D1641CE4B26D
:101F40000D2C00D10124032D43D17F1CFFB2012CA5
:101F50000BD0032C09D0052C07D0072C05D0082C5A
:101F600003D00A2C01D00C2C01D1202F09D0042C35
:101F700005D0062C03D0092C01D00B2C02D11F2F29
:101F800000D10127B00710D1642096FBF0F100FBCF
:101F9000116030B94FF4C87096FBF0F100FB11608E
:101FA00018B9022C01D11E2F12D0B0070CD1642019
:101FB00096FBF0F100FB116058B94FF4C87096FB26
:101FC000F0F100FB116020B1022C02D11D2F00D1D5
:101FD00001279F480178012951D100210170012D6D
:101FE00003D1761E002E00DA6326022D03D1641E73
:101FF000E4B204B90C24032D41D17F1EFFB2012CA1
:102000000BD0032C09D0052C07D0072C05D0082CA9
:1020100003D00A2C01D00C2C01D107B91F27042CA6
:1020200005D0062C03D0092C01D00B2C01D107B907
:102030001E27B00710D1642096FBF0F100FB116061
:1020400030B94FF4C87096FBF0F100FB116018B97D
:10205000022C01D107B91D27B0070CD1642096FBD3
:10206000F0F100FB116050B94FF4C87096FBF0F12D
:1020700000FB116018B1022C6FD107B91C276CE06E
:102080001020009002235A4604212B20FEF792FFD5
:1020900010233A2204213B20FEF744FF1020009039
:1020A000022304214320019AFEF784FF012D0DD164
:1020B0000C23AFF2CC1206212C20FEF7B3FF0C2329
:1020C000AFF2D81206214420FEF7ACFF022D0DD14D
:1020D0000C23AFF2EC1206214420FEF7A3FF0C23E1
:1020E000AFF2F81206212C20FEF79CFF574801782A
:1020F000012917D100210170012D08D10198401C40
:10210000C0B2019001983C2801D100200190022D1D
:1021100008D10BF1010B0BF0FF0BBBF1180F01D134
:102120004FF0000B4A480178012916D100210170B7
:10213000012D07D10198401EC0B20190019808B945
:102140003B200190022D08D1ABF1010B0BF0FF0BEE
:10215000BBF1000F01D14FF0170B3E480178012968
:1021600012D1002101706D1CEDB2B8F1020F02D046
:10217000B8F1040F02D1032D00D10125B8F1030FEE
:1021800002D1042D00D101253349097801297FF4BA
:102190009CAD007801283FF498AD2F4900200870CD
:1021A0000125FEF7DDFD601C00EB40000521B0FBC2
:1021B000F1F007EB44010844F117304406EB91714C
:1021C00000EBA101642096FBF0F0091A4FF4C870EF
:1021D00096FBF0F00844072190FBF1F201FB12009E
:1021E000401CC0B202901D480178494502D1407898
:1021F000504505D000231A4651464846FFF7FCFAE1
:10220000F0B23A462146029BFFF7E8FA1349002054
:10221000091DFFF7D7F811480023001D5946007823
:10222000019AFFF78DFA0D490020FFF7FDF80B49E1
:102230000020091DFFF7C6F8094A4FF480710020FD
:10224000FFF78AF82DE4BDE8FE8F00001E00002095
:102250001F0000201D00002020000020E6040020B8
:10226000B80500204FF0E021042804D0086920F0D0
:10227000040008617047086940F004000861704775
:102280007047000010B51248016841F47001016008
:102290001048016841F0010101600E4A0021083236
:1022A000116002680C4B1A400260031D0B4A1A6051
:1022B000026822F48022026006480C300160FFF7B9
:1022C00087FB03494FF000608039086010BD0000B3
:1022D00088ED00E000380240FFFFF6FE10300024D9
:1022E00070B5164C40F22551204600F039F8002810
:1022F0000ED0204600F0CEF8C1B2114A1088030477
:1023000006D444044FF0000307D50A2901D01380F6
:1023100070BD40F40040108070BD0D290AD0094DF9
:10232000C0F30D042955401C80B21080C728F3D992
:10233000138070BD40F48040108070BD00100140DB
:1023400014000020F0040020002904D0818941F409
:10235000005181817047818921F40051818170474A
:1023600070B5002440F66A12C1F3421301F01F0554
:10237000012606FA05F2012B0CD0022B0DD0838A20
:102380001340090A8E40008830400BB100B101248F
:10239000204670BD83891340F3E7038A1340F0E7BA
:1023A00010B540F66A13C1F3421301F01F04012176
:1023B000A140012B07D0022B07D014303AB102689C
:1023C0000A43026010BD0C30F8E71030F6E70268EF
:1023D0008A43026010BD00007FB504460D46208A86
:1023E00020F44051E88808432082A08941F20C6122
:1023F0008843A9882A8911436A8902431143A1812C
:10240000A08A20F44071A8890843A0826846FEF79C
:102410005DFE1E48844202D01D48844201D10398CB
:1024200000E00298A189090408D500EBC00101EB86
:10243000001029684900B0FBF1F007E000EBC00193
:1024400001EB001029688900B0FBF1F06422B0FBB9
:10245000F2F109010B096FF018056B4300EB8300E3
:10246000A3891D044FF0320307D503EBC000B0FB76
:10247000F2F000F00700084306E003EB0010B0FBA9
:10248000F2F000F00F00084320817FBD00100140F2
:10249000001401408088C0F308007047FEE710B5C3
:1024A0000446FEF71FFB7820FEF7ECFAFEF754FB1C
:1024B0000020FEF7E7FAFEF74FFB2046FEF7E2FAB0
:1024C000FEF74AFBBDE81040FEF728BB10B50446F6
:1024D000FEF708FB7820FEF7D5FAFEF73DFB40201B
:1024E000FEF7D0FAFEF738FB2046FEF7CBFAFEF7F0
:1024F00033FBBDE81040FEF711BB0000014A024962
:1025000000F013B8152600081800002002E008C8E3
:10251000121F08C1002AFAD170477047002001E05D
:1025200001C1121F002AFBD170472DE9F041164668
:102530000F460446002503E03946B047641C6D1C75
:1025400020780028F8D12846BDE8F08110B504466F
:102550006FF00400FFF786FE0649E008087000EB04
:102560004002C2EBC0104FF6FF7202EAC000488082
:1025700010BD00001000002070B54FF40775B0FBCF
:10258000F5F1CCB2B0FBF5F105FB110604E02846ED
:1025900000F026F8641EE4B2002CF8D1002E04D01E
:1025A0003046BDE8704000F01BB870BD0B4909789B
:1025B00048434FF0E021486100238B61086940F0F7
:1025C000010008610869C20701D0C003FAD5086993
:1025D00020F0010008618B617047000010000020AE
:1025E0000B49498848434FF0E021486100238B6143
:1025F000086940F0010008610869C20701D0C00302
:10260000FAD5086920F0010008618B61704700006D
:102610001000002003490A885206FCD5C2B28A8005
:1026200070470000001001402C48002505702C4820
:1026300005702C4805702C4805704FF4A060FEF71B
:1026400085FB5420FFF782FF4FF4E13000F05CF887
:10265000FEF7CEFAFEF7A2FBFDF728FEFEF7FDFA25
:1026600000210420FFF7D6F8FEF7FAF84FF00A0928
:102670001E4C1F4F1F4EFDF7F5FF3078B0FBF9F1F0
:1026800009FB110038B9FDF78BFFD4F8B00270B127
:102690000020C4F8B0020A20FFF76EFFFFF7F2F93E
:1026A0003078401C30703878012802D010E00120CA
:1026B000EFE7C4F8B0524FF00108C4F898824FF425
:1026C000FA70FFF759FFC4F8B082C4F898523D7011
:1026D00030781428CFD13570CDE700001D000020E0
:1026E0001E0000201F00002020000020008040422B
:1026F000E1040020EE0400200346012000E05843DE
:10270000491EC9B2FBD27047F0B587B0054601211A
:102710000846FEF7B1FC01211020FEF7C9FC234F4B
:10272000072209213846FEF77BF907220A2138469D
:10273000FEF776F94FF4C060059002208DF818007E
:102740008DF8190000248DF81A4001268DF81B60C1
:1027500005A93846FEF726F90195ADF80840ADF811
:102760000A40ADF80C40ADF810400C20ADF80E005A
:102770000F4C01A92046FFF72FFE01212046FFF74D
:10278000E3FD012240F225512046FFF709FE2520F6
:102790008DF8000003208DF801008DF802008DF8FF
:1027A00003606846FEF79EFA07B0F0BD00000240E5
:1027B000001001400000000000000000002F000099
:1027C00000000700070000147F147F1400242A7FF4
:1027D0002A12006264081323003649552250000073
:1027E0000503000000001C224100000041221C00E3
:1027F0000014083E08140008083E0808000000A065
:102800006000000808080808000060600000002060
:1028100010080402003E5149453E0000427F40003E
:10282000004261514946002141454B3100181412C4
:102830007F10002745454539003C4A494930000191
:102840007109050300364949493600064949291EE0
:102850000000363600000000563600000008142242
:102860004100001414141414000041221408000242
:102870000151090600324959513E007C1211127C67
:10288000007F49494936003E41414122007F414194
:10289000221C007F49494941007F09090901003E86
:1028A0004149497A007F0808087F0000417F4100C4
:1028B000002040413F01007F08142241007F40403A
:1028C0004040007F020C027F007F0408107F003E22
:1028D0004141413E007F09090906003E4151215E08
:1028E000007F091929460046494949310001017F05
:1028F0000101003F4040403F001F2040201F003F9B
:102900004038403F0063140814630007087008074C
:1029100000615149454300007F41410000552A555F
:102920002A55000041417F000004020102040040DA
:1029300040404040000001020400002054545478FC
:10294000007F48444438003844444420003844441C
:10295000487F00385454541800087E0901020018BA
:10296000A4A4A47C007F080404780000447D4000F7
:10297000004080847D00007F102844000000417FDB
:102980004000007C04180478007C080404780038B7
:102990004444443800FC242424180018242418FC3F
:1029A000007C0804040800485454542000043F44A8
:1029B0004020003C4040207C001C2040201C003C6B
:1029C0004030403C004428102844001CA0A0A07CBB
:1029D000004464544C4414141414141400000000F3
:1029E000000000000000000000000000000000F8EF
:1029F00000000000000000333000000000100C0652
:102A0000100C0600000000000000000040C07840EC
:102A1000C0784000043F04043F040400007088FCB8
:102A200008300000001820FF211E0000F008F00010
:102A3000E018000000211C031E211E0000F0088881
:102A4000700000001E2123241927211010160E00EB
:102A5000000000000000000000000000000000E096
:102A600018040200000000071820400000020418AB
:102A7000E00000000040201807000000404080F007
:102A8000804040000202010F01020200000000F03D
:102A9000000000000101011F010101000000000011
:102AA0000000000080B07000000000000000000086
:102AB000000000000001010101010101000000000F
:102AC00000000000003030000000000000000000A6
:102AD00080601804006018060100000000E0100883
:102AE0000810E000000F102020100F00001010F858
:102AF000000000000020203F202000000070080897
:102B00000888700000302824222130000030088816
:102B1000884830000018202020110E000000C0203E
:102B200010F8000000070424243F240000F808885F
:102B3000880808000019212020110E0000E01088EC
:102B400088180000000F112020110E00003808081E
:102B5000C83808000000003F00000000007088082E
:102B600008887000001C222121221C0000E01008AF
:102B70000810E0000000312222110F00000000C008
:102B8000C0000000000000303000000000000080A5
:102B90000000000000008060000000000000804095
:102BA00020100800000102040810200040404040AE
:102BB0004040400004040404040404000008102001
:102BC0004080000000201008040201000070480846
:102BD0000808F0000000003036010000C030C828AE
:102BE000E810E0000718272423140B000000C03869
:102BF000E0000000203C23020227382008F88888E3
:102C000088700000203F202020110E00C0300808EE
:102C100008083800071820202010080008F80808C5
:102C20000810E000203F202020100F0008F88888BE
:102C3000E8081000203F20202320180008F888888A
:102C4000E8081000203F200003000000C030080802
:102C50000838000007182020221E020008F808008B
:102C60000008F808203F210101213F20000808F852
:102C7000080800000020203F202000000000080875
:102C8000F8080800C08080807F00000008F888C035
:102C900028180800203F20012638200008F80800E6
:102CA00000000000203F20202020300008F8F8001D
:102CB000F8F80800203F003F003F200008F830C02F
:102CC0000008F808203F200007183F00E01008081F
:102CD0000810E0000F10202020100F0008F808084E
:102CE0000808F000203F210101010000E010080861
:102CF0000810E0000F18242438504F0008F8888886
:102D000088887000203F2000030C30200070880865
:102D1000080838000038202121221C00180808F873
:102D2000080818000000203F2000000008F80800F4
:102D30000008F808001F202020201F0008788800C5
:102D400000C83808000007380E010000F80800F835
:102D50000008F800033C0700073C030008186880DF
:102D60008068180820302C03032C30200838C80055
:102D7000C83808000000203F2000000010080808A4
:102D8000C83808002038262120201800000000FE46
:102D9000020202000000007F40404000000C30C0F2
:102DA00000000000000000010638C000000202021E
:102DB000FE000000004040407F00000000000402D0
:102DC00002020400000000000000000000000000FB
:102DD00000000000808080808080808000020204EB
:102DE00000000000000000000000000000008080E3
:102DF000808000000019242222223F2008F8008051
:102E000080000000003F112020110E000000008013
:102E100080800000000E11202020110000000080A2
:102E20008088F800000E112020103F2000008080D4
:102E300080800000001F222222221300008080F0E8
:102E4000888888180020203F202000000000808013
:102E500080808000006B94949493600008F8008058
:102E600080800000203F210000203F2000809898B3
:102E7000000000000020203F202000000000008013
:102E80009898000000C08080807F000008F8000053
:102E900080808000203F24022D302000000808F8A8
:102EA000000000000020203F202000008080808063
:102EB00080808000203F20003F20003F80800080F5
:102EC00080800000203F210000203F200000808003
:102ED00080800000001F202020201F0080800080B4
:102EE0008000000080FFA12020110E000000008063
:102EF00080808000000E112020A0FF808080800054
:102F00008080800020203F21200001000000808080
:102F1000808080000033242424241900008080E075
:102F2000808000000000001F202000008080000042
:102F300000808000001F202020103F208080800023
:102F40000080808000010E30080601008080008033
:102F5000008080800F300C030C300F000080800058
:102F6000808080000020312E0E3120008080800083
:102F70000080808080818E70180601000080808033
:102F8000808080000021302C2221300000000000D1
:102F9000807C020200000000003F40400000000072
:102FA000FF00000000000000FF0000000002027CA3
:102FB000800000000040403F0000000000060101CA
:102FC000020204040000000000000000EC2F0008D2
:102FD00000000020F0040000F4010008B4310008F3
:102FE000F0040020D80400001C250008412D010237
:102FF0000304040513060708091FFE82929292FE3D
:1030000004031382FE2480601F0809121E1212128C
:103010001E40807F20C90101338A08010113CA10B4
:103020000101128B048401021204CA200101127DE5
:10303000FC0404040401132D7F2824233A061321E1
:103040002222227F1F02424242C27E05051242C254
:1030500002021A40012B7847061B407F040915A085
:103060000C1621222CA0364020100C03061501025C
:103070000418604BFE82010217FE3AFF7E041440E2
:1030800040FF1D1060028C432A92010912411E0468
:10309000047E0140DF1A7E020B10427EC021280907
:1030A000FC242424FC252624080A1004BF080F143D
:1030B000308F80844C55252525554C808080804953
:1030C0007F091780080B104448507F40407F5048CC
:1030D000448015404042CC000B1440A09E82828266
:1030E0009EA02020080B113F908840432C102846BA
:1030F00041801118081715D55557557D040412D570
:1031000015171A40794A550119840910801116FCC7
:10311000848484FC2A10010C11FF10107E191922DE
:103120003F0614010640807F14F80106000A13F0E0
:10313000121212F2020202FE32FF161F1111111FAB
:10314000091541111AFEFC290109123E394219B82C
:103150002901294A0112100804FF242424FF040D28
:1031600011FE22222242080E1288482F090919AFA7
:1031700048300F024282801808F8012220222AF2E9
:103180003E0A1622C00808131F01017F09110FC053
:103190001720102CE72424000812F01010FF101044
:1031A000F01A013C132111000821070202FF02025C
:0431B0000700000014
:040000050800019559
:00000001FF
